:060000000A128A1100291A
:100200002121392112210313831208210D210529EF
:100210000B1D08291D21850A080006184021861893
:1002200045210800031383168112811101158110E5
:100230000114031383121D210800003081000B11EB
:10024000080083160317880189010313831605101C
:1002500085100511851106148614071087100711E3
:1002600087118801831203138501860187018801A4
:100270000800031383160F178F120F160F140800B0
:10028000502106184129870A08005021861846295E
:1002900087030800C830A0005021A00B4C2908009B
:0A02A000A530A100A10B52290800AF
:04400E00C430FF3F7C
:00000001FF
