:060000000A128A11142906
:10000800F000030EF1000B1810200B191820710EC8
:100018008300F00E700E090003138312061C85037B
:10002800861C850A0B1008000313831264308100B4
:100038000B11A10A2108323C031D2428A101870ABB
:020048000800AE
:100200008A010A140F3982073F3406345B344F34B5
:1002100066346D347D3407347F346F3477347C3406
:1002200039345E34793471343A2154212B2125211B
:100230001C21031383121B2903138316161496140F
:100240000313831206080B1008008B178B160B1173
:100250008B150B10080003138316811281110115F1
:10026000811001140313831203138312643081007D
:100270000B110800831603178801890103138316E5
:1002800005108510051185110614861481131514A7
:100290009514071087100711871183120313850126
:1002A0008601870188010800031383160F178F1238
:0602B0000F160F140800F8
:04400E00D420FF3F7C
:00000001FF
