:060000000A128A11142906
:10000800F000030EF1000B190F201C20710E830065
:10001800F00E700E090003138312643081000B1177
:10002800A10A2108323C031D1B28A101850A0800EA
:1000380003138312643081000B11880123182828C8
:100048002608870008142B28270887008814013001
:04005800A3060800F3
:100200008A010A140F3982073F3406345B344F34B5
:1002100066346D347D3407347F346F3477347C3406
:1002200039345E34793471344021542131212D2107
:10023000031383120130A2001F2126211A2922084C
:100240000F39A400220E0F39A50008002408002150
:10025000A60025080021A70008008B178B160B119C
:1002600008000313831681128111011581100114F6
:100270000313831203138312643081000B110800EF
:10028000831603178801890103138316051085104F
:100290000511851187010810881083120313850149
:1002A0008601870188010800031383160F178F1238
:0602B0000F160F140800F8
:04400E00D420FF3F7C
:00000001FF
