:060000000A128A1100291A
:1002000006210313831219211E21032983160317C4
:1002100088018901831603138501061486140615C7
:1002200086150710871007118711831203138501A4
:1002300087010618232186182821080006192D2178
:100240008619322108003D2106182429850A080054
:100250003D2186182929850308003D2106192E29EC
:10026000870A08003D218619332987030800C83012
:10027000A0003D21A00B39290800A530A100A10B49
:040280003F2908000A
:04400E00C430FF3F7C
:00000001FF
