:100000000A128A11FC2F00308A000408840A820731
:10001000003450344934433431343634463438347F
:100020003834373420346D346934633472346F3487
:1000300063346F346E34743472346F346C346C34B3
:1000400065347234203455344134523454342034BD
:100050006534783461346D3470346C346534003414
:10006000483465346C346C346F34203477346F34F6
:1000700072346C34643421340D340A34003448341E
:0C0080006F346C3461340D340A340034E9
:100C3600831203138C1A202E212E232E0310242E0A
:100C460003140800F00083160313981C2B2E2C2E79
:100C5600262E7008831203139900080083120313CB
:100C66008C1E362E372E312E981C3A2E3B2E3D2EBC
:100C7600181218161A080800831203138C1A442E29
:100C8600452E502E981C482E492E4E2E1812000026
:100C96008312031318161A08512E00300800F300A9
:100CA600F201662E7208730784000A128A11032065
:100CB6000A128A110A128A1125260A128A1101308D
:100CC600F1007108F2077208730784000A128A118C
:100CD60003200A128A11003A031D722E732E552E16
:100CE60008000030FC000030FB000030FA00003045
:100CF600F90073087204710470040319832E842E9C
:100D0600D12EFD01FD0A942E0130F8000310F00DDE
:100D1600F10DF20DF30DF80B892E0130F80078086D
:100D2600FD07F31F972E982E872E0130F80003102B
:100D3600F90DFA0DFB0DFC0DF80B9A2E73087702D0
:100D4600031DAF2E72087602031DAF2E71087502C1
:100D5600031DAF2E70087402031CB22EB32EC22ED2
:100D66007008F4027108031C710FF5027208031C67
:100D7600720FF6027308031C730FF7027914013021
:100D86000310F30CF20CF10CF00CFF3E031DC32E06
:100D96000130FD02031DD02ED12E982E7C08F300C3
:100DA6007B08F2007A08F1007908F000080070303C
:100DB600831603138F00003083120313A300003041
:100DC600A2002530A1008030A0000A128A115C27FB
:100DD6000A128A11153083120313AC004B30AB0094
:100DE600BD30AA00AA0BF52EAB0BF52EAC0BF52EDB
:100DF600FC2E28300A128A1152260A128A110B304A
:100E060083120313AC002630AB005D30AA00AA0B98
:100E16000A2FAB0B0A2FAC0B0A2F01300A128A11CC
:100E260052260A128A110B3083120313AC002630A5
:100E3600AB005D30AA00AA0B1E2FAB0B1E2FAC0B0E
:100E46001E2F34300A128A1152260A128A110A12E9
:100E56008A113F260A128A1183120313AD0031301C
:100E66002D06031D372F382F412F37300A128A11CE
:100E760052260A128A118312031318120A128A11B1
:100E86001B260A128A11031C492F4A2F2A2F0A12DF
:100E96008A1131260A128A1183120313AE002E0814
:100EA6000A128A1125260A128A112A2F0A128A1173
:100EB6000028831203132008A4002108A500220895
:100EC600A6002308A70004300310A40DA50DA60D47
:100ED600A70DFF3E031D672F2708F3002608F20023
:100EE6002508F1002408F0000030F7007A30F600FB
:100EF6001230F5000030F4000A128A1174260A1224
:100F06008A117008FF3E83120313A80071080318A4
:100F1600013EFF3EA900A91F912F922F942FA801F1
:100F2600A9012908803AFF0081307F02031D9D2F09
:100F360000302802031CA02FA12FEF2F83120313CA
:100F46002008A4002108A5002208A6002308A7005F
:100F560006300310A40DA50DA60DA70DFF3E031D1B
:100F6600AC2F2708F3002608F2002508F100240814
:100F7600F0000030F7007A30F6001230F50000304D
:100F8600F4000A128A1174260A128A117008FF3EAA
:100F960083120313A80071080318013EFF3EA9003F
:100FA6002908803AFF0081307F02031DDC2F0030C4
:100FB6002802031CDF2FE02FE62FFF3083120313D6
:100FC600A8000030A9008312031328088316031310
:100FD600990020309800F72F8312031328088316F0
:100FE600031399002430980090308312031398005D
:0A0FF600080083010A128A11DA2EA6
:08400000FF3FFF3FFF3FFF3FC0
:04400E00D538FF3F63
:00000001FF
