:060000000A128A110C280F
:10000800FE00030EF1000A08F2000A128A11DD2C24
:100018000A128A110F2883120313C20183010A12DC
:100028008A119C2983120313B1002730AC00872959
:10003800253034060319212822282C283108840069
:100048003408831380000130A9002908B1078729E3
:10005800B201B301AD0135282D150130A9002908D9
:10006800A607260884000A128A11A6230A128A11F2
:10007800A900AA012A08003A031943284828290890
:10008800303A031930284828260884000A128A11B1
:10009800A6230A128A110A128A111C250A128A1129
:1000A800031C572858289E2883120313B201B30152
:1000B8000A30F3000030F400831203133308F6000B
:1000C8003208F5000A128A1196240A128A11740855
:1000D80083120313B3007308B200260884000A12BF
:1000E8008A11A6230A128A11D03EA900FF300318EC
:1000F8000030AA002908B2070318B30A2A08B30770
:100108000130A9002908A607260884000A128A11C6
:10011800A6230A128A110A128A111C250A128A11A8
:100128000318972898285C289E28C030A900290819
:10013800AD04BA28013083120313A607FF3026073F
:1001480084000A128A11A6230A128A11B400A9008F
:10015800AA012A08003A0319B22887292908003A6F
:1001680003199729753A0319992887292C088400B7
:1001780083130008AE00840A0008AF000230A9000B
:100188002908AC07B401B40A3408A9002907013EBC
:1001980084000A128A11A6230A128A11AA000A12D6
:1001A8008A11A6230A128A11AB002B082F02031DFD
:1001B800DF282A082E020318E228E328E428EE287C
:1001C8000130A9002908B40705303406031DED28BD
:1001D800EE28C8283308803A803C031DF5283208E9
:1001E80034020318F828F928052983120313340860
:1001F800A900AA012908B2022A08031CB303B30202
:10020800092983120313B201B3012D1D0C290D29ED
:1002180029293208330403191229132944293108DA
:1002280084003030831380000130A9002908B10709
:10023800FF30B2070318B30AFF30B307320833049C
:10024800031D2729282913294429320833040319AF
:100258002E292F2944293108840020308313800057
:100268000130A9002908B107FF30B2070318B30A03
:10027800FF30B30732083304031D432944292F29CB
:100288003408B0007E290A30A0000030A1003008F0
:10029800A9002907013E84000A128A11A6230A121E
:1002A8008A11F3000A128A11A6230A128A11F4008D
:1002B8002F08F6002E08F5000A128A11E3230A1205
:1002C8008A11740883120313A3007308A2000A1288
:1002D8008A1127240A128A11831203132008303E38
:1002E800B400310884003408831380000130A90069
:1002F8002908B107FF30A9002908B007300A031DF3
:100308008629872947290130A607FF302607840058
:100318000A128A11A6230A128A11B4003408031D8E
:10032800962997291C283108840083138001080026
:100338000A128A11BB240A128A1170308316031319
:100348008F00003083120313A9000030A800253065
:10035800A7008030A6000A128A1194220A128A1174
:10036800153083120313B7004B30B600BD30B5000B
:10037800B50BBC29B60BBC29B70BBC29C3291A304D
:10038800F4008030F5000A128A1163240A128A11D7
:100398000B3083120313B7002630B6005D30B5006A
:1003A800B50BD429B60BD429B70BD4290B30F400DC
:1003B8008030F5000A128A1163240A128A110B3060
:1003C80083120313B7002630B6005D30B500B50BB5
:1003D800EB29B60BEB29B70BEB292E30F400803054
:1003E800F5000A128A1163240A128A118312031370
:1003F8009F14831203139F18022A032A632A9F1447
:10040800632A1E08C2002E30F4008030F5000A125C
:100418008A1163240A128A11313083120313A60049
:100428004208B500B6013508A7003608A8003830DC
:100438000A128A1116200A128A113830F400003084
:10044800F5000A128A1163240A128A110A128A1103
:1004580009250A128A113030831203139A00792A67
:100468005E3083120313B7005830B600D930B50098
:10047800B50B3C2AB60B3C2AB70B3C2A432A2E3034
:10048800F4008030F5000A128A1163240A128A11D6
:100498000A128A11F6240A128A11F4008030F50033
:1004A8000A128A1163240A128A110A128A1109256A
:1004B8000A128A113030831203139A00792A0A1219
:1004C8008A11F6240A128A1183120313B500B601A1
:1004D8003608003A0319712A792A3508313A03197E
:1004E800052A033A0319342A792A0A128A11482557
:1004F8000A128A11031C812A822AFD290A128A11EA
:100508002E250A128A1183120313C10041080A1208
:100518008A113C250A128A11FD290A128A110C280F
:10052800831203132608AA002708AB002808AC008A
:100538002908AD0004300310AA0DAB0DAC0DAD0DAC
:10054800FF3E031D9F2A2D08F6002C08F5002B08F6
:10055800F4002A08F3000030FA007A30F90012306B
:10056800F8000030F7000A128A1134230A128A119F
:100578007308FF3E83120313AE0074080318013E8C
:10058800FF3EAF00AF1FC92ACA2ACC2AAE01AF016D
:100598002F08803AFF0081307F02031DD52A0030E2
:1005A8002E02031CD82AD92A272B831203132608C4
:1005B800AA002708AB002808AC002908AD000630BF
:1005C8000310AA0DAB0DAC0DAD0DFF3E031DE42AC3
:1005D8002D08F6002C08F5002B08F4002A08F30073
:1005E8000030FA007A30F9001230F8000030F700D5
:1005F8000A128A1134230A128A117308FF3E8312E1
:100608000313AE0074080318013EFF3EAF002F0825
:10061800803AFF0081307F02031D142B00302E0228
:10062800031C172B182B1E2BFF3083120313AE004D
:100638000030AF00831203132E08831603139900AA
:10064800203098002F2B831203132E0883160313D0
:100658009900243098009030831203139800080002
:10066800003083120313A4000030A3000030A2005E
:100678000030A10076087504740473040319452B2F
:10068800462B932BA501A50A562B0130A000031079
:10069800F30DF40DF50DF60DA00B4B2B0130A0005A
:1006A8002008A507F61F592B5A2B492B0130A0000B
:1006B8000310A10DA20DA30DA40DA00B5C2B7608B1
:1006C8007A02031D712B75087902031D712B7408BA
:1006D8007802031D712B73087702031C742B752B8A
:1006E800842B7308F7027408031C740FF80275084A
:1006F800031C750FF9027608031C760FFA02211401
:1007080001300310F60CF50CF40CF30CFF3E031D3E
:10071800852B0130A502031D922B932B5A2B2408FD
:10072800F6002308F5002208F4002108F300080069
:10073800FF1BA62B83137F1883170008840A03194D
:10074800FF0A080003308A000408840A820700347C
:10075800013400340A34003464340034E834033497
:100768001034273432342E3445346E3476346934B8
:1007780061347234203441347334633469346934F5
:10078800003431342E344C346534653472342034BA
:1007980070346F34743465346E34633469346F3450
:1007A8006D346534743472346F340D340A34003463
:1007B80025343034333475340D340A340034F801B8
:1007C800F901730874040319EA2BEB2B222CFA01A4
:1007D800FA0AF92B01300310F30DF40DFF3E031D47
:1007E800EF2B0130F7007708FA07F41FFC2BFD2BDD
:1007F800EE2B01300310F80DF90DFF3E031DFE2B03
:1008080074087602031D0A2C73087502031C0D2C4C
:100818000E2C152C7308F5027408031CF603F60257
:10082800781401300310F40CF30CFF3E031D162C52
:100838000130FA02031D212C222CFD2B7908F4002B
:100848007808F30008008312031320082104031911
:100858002E2C2F2C5E2CA501A50A3D2C013003104F
:10086800A00DA10DFF3E031D332C0130A400240868
:10087800A507A11F402C412C322C21082302031D5F
:10088800472C20082202031C4A2C4B2C512C2008F0
:10089800A2022108031CA303A30201300310A10C28
:1008A800A00CFF3E031D522C0130A502031D5D2C38
:1008B8005E2C412C2308A1002208A0000800F801A2
:1008C8007E2C7808F600F70176087407840077080C
:1008D8000318770A7507FF000A128A119C230A1267
:1008E8008A110A128A113C250A128A110130F6006F
:1008F8007608F8077808F600F70176087407840088
:1009080077080318770A750783120313FF000A1282
:100918008A119C230A128A11003A031D942C952CE3
:10092800652C0800F701F801731C9B2C9C2CA22C49
:100938007508F7070318F80A7608F8070130031056
:10094800F50DF60DFF3E031DA32C01300310F40C2A
:10095800F30CFF3E031DAA2C73087404031DB52C69
:10096800B62C982C7808F4007708F30008000330B8
:100978008316031788008901FF3083160313850047
:100988009F131F129F12831203131F083F39403809
:100998009F00C3309F051F142130F300F30BD22CA6
:1009A800831203130C13831603130C170B178B17DF
:1009B8000800831203130C1FE22CE32CEF2C1F0CEE
:1009C800F000700C0F39003A031DEB2CEC2CEE2CC8
:1009D8001E08C2000C1372088A00710E8300FE0EF6
:1009E8007E0E0900831203138C1AFB2CFC2C072D96
:1009F800981CFF2C002D052D1812000083120313DC
:100A080018161A08082D003008001A30F400803033
:100A1800F5000A128A1163240A128A110B30F400B5
:100A28008030F5000A128A1163240A128A1108001C
:100A3800F400F3013A3074020318232D242D2C2DD1
:100A480030307402031C292D2A2D2C2DF301F30AB2
:100A5800730C0800831203138C1E332D342D2E2D96
:100A6800981C372D382D3A2D181218161A08080018
:100A7800F30083160313981C422D432D3D2D730854
:100A88008312031399000800831203138C1A4D2D47
:0C0A98004E2D502D0310512D03140800AA
:08400000FF3FFF3FFF3FFF3FC0
:04400E00D538FF3F63
:00000001FF
