:060000000A128A11142906
:100200008A010A140F3982073F3406345B344F34B5
:1002100066346D347D3407347F346F3477347C3406
:1002200039345E347934713453216C214421031301
:10023000831237213F212521222107080021880030
:100240007D211929890A850108000708A3000508EE
:10025000A302A5000130251C013CA51C0000251DA2
:10026000013EA51D013CA400241C222108000A30E7
:10027000A200A2034F2122183929850A0800061876
:1002800073218618782108000313831681128111C7
:10029000011581100114031383124F2108000C3043
:1002A00081000B11080083160317880189010313CD
:1002B0008316051085100511851106148614071084
:1002C0008710071187110910880183120313850114
:1002D0008601870188010800031383160F178F1208
:1002E0000F160F140800832106187429870A0800C6
:1002F00083218618792987030800C830A00083214C
:10030000A00B7F290800A530A100A10B85290800BA
:04400E00D420FF3F7C
:00000001FF
