:060000000A128A11142906
:100200008A010A140F3982073F3406345B344F34B5
:1002100066346D347D3407347F346F3477347C3406
:1002200039345E3479347134482161213921031322
:1002300083122C21342124210708002188007221F7
:100240001929890A850108000708050203192929C7
:100250002B292C21212108000A30A200A2034421CD
:1002600022182E29850A08000618682186186D2193
:1002700008000313831681128111011581100114E6
:1002800003138312442108000C3081000B11080075
:10029000831603178801890103138316051085103F
:1002A0000511851106148614071087100711871190
:1002B00009108801831203138501860187018801D3
:1002C0000800031383160F178F120F160F14080060
:1002D000782106186929870A0800782186186E296E
:1002E00087030800C830A0007821A00B74290800FB
:0A02F000A530A100A10B7A29080037
:04400E00D420FF3F7C
:00000001FF
