:060000000A128A110C280F
:10000800FE00030EF1000A08F2000A128A11922873
:100018000A128A110F2883010A128A1163280330F1
:100028008316031788008901FF30831603138500A0
:1000380070308F040F149F131F129F128312031323
:100048001F083F3940389F001F08C33904389F00F4
:100058001F141030F300F30B2F280000831603132E
:1000680087140715FF3092003F308312031397055A
:100078001708F0390C3897000F309500CF309705E6
:100088008C10033092041215F0309D051D08F039CC
:100098000C389D000F309B001D129D128C1C55289A
:1000A800562852288C108316031307118312031342
:1000B8000C13831603130C170B178B1708000A125F
:1000C8008A1113200A128A11831203139F149F188E
:1000D8006E286F286B281030F400F40B712800008C
:1000E800831203131F0CF400740C0F39003A031D1C
:1000F8007E287F2884281F08C33904389F00862853
:10010800C3309F051030F400F40B882800008312D8
:1001180003139F146B280A128A110C2883120313E5
:100128000C1F97289828B8281F0CF000700C0F395E
:10013800013A031DA028A128A8281E08F0000310D2
:10014800700C803E9500B7281F0CF000700C0F391A
:10015800003A031DB028B128B7281E08F000031084
:10016800700C803E9B000C1372088A00710E83008D
:06017800FE0E7E0E0900E0
:08400000FF3FFF3FFF3FFF3FC0
:04400E00D538FF3F63
:00000001FF
