:060000000A128A11142906
:100200008A010A140F3982073F3406345B344F34B5
:1002100066346D347D3407347F346F3477347C3406
:1002200039345E34793471343B2153212C2103134A
:100230008312202127210708002188006421192921
:100240000A30A2003721A20B2329850A08000618CC
:100250005A2186185F210800031383168112811129
:1002600001158110011403138312372108000C308B
:1002700081000B11080083160317880189010313FD
:1002800083160510851005118511061486140710B4
:1002900087100711871188018312031385018601D6
:1002A000870188010800031383160F178F120F169A
:1002B0000F1408006A2106185B29870A08006A21C2
:1002C0008618602987030800C830A0006A21A00BA7
:0E02D00066290800A530A100A10B6C290800CA
:04400E00D420FF3F7C
:00000001FF
