:060000000A128A11142906
:100200008A010A140F3982073F3406345B344F34B5
:1002100066346D347D3407347F346F3477347C3406
:1002200039345E3479347134392151212A21031350
:100230008312202125210708002188006221192925
:100240000B1D20293521850A08000618582186181B
:100250005D2108000313831681128111011581109D
:1002600001140313831235210800003081000B11A3
:1002700008008316031788018901031383160510EC
:1002800085100511851106148614071087100711B3
:100290008711880183120313850186018701880174
:1002A0000800031383160F178F120F160F14080080
:1002B000682106185929870A0800682186185E29CE
:1002C00087030800C830A0006821A00B642908003B
:0A02D000A530A100A10B6A29080067
:04400E00C430FF3F7C
:00000001FF
