:060000000A128A11142906
:10000800F000030EF1000B192B2037200B181D20D0
:10001800710E8300F00E700E090008000800003011
:10002800013E2207A20008000030013E2202A20081
:10003800080003138312861C22282428850318200D
:10004800061C27282928850A13200B1008000313EB
:100058008312643081000B11A10A2108323C031D70
:100068003628A101080003138312643081000B11A4
:1000780088012318432826088700081546282708DA
:0A008800870088140130A306080069
:100200008A010A140F3982073F3406345B344F34B5
:1002100066346D347D3407347F346F3477347C3406
:1002200039345E34793471344A2163213B213521DC
:100230001E210313831227212E211B29031383164A
:10024000161496140313831206080B1008002208D4
:100250000F39A400220E0F39A50008002408002140
:10026000A60025080021A70008008B178B160B118C
:100270008B150B10080003138316811281110115D1
:10028000811001140313831203138312643081005D
:100290000B1108000030A2008316031788018901A2
:1002A00003138316850106148614811315149514FF
:1002B0008701081088100811831203138501860135
:1002C000870188010800031383160F178F120F167A
:0402D0000F140800FF
:04400E00D420FF3F7C
:00000001FF
