:060000000A128A110C280F
:10000800FE00030EF5000A08F6000A128A111728E6
:100018000A128A110F28F701F801F901FA01830180
:100028000A128A116F28831203130C1F1C281D281B
:100038003D281F0CF300730C0F39013A031D2528C6
:100048002628282800003A281F0CF300730C0F39C3
:10005800003A031D302831283A281E0887001E0858
:10006800F300F4017308F7007408F800831203130F
:100078000C130B1C402841286828861C4428452856
:1000880049280B18482849284E28861C4C284D28F2
:1000980049280B100619512852286828642877081F
:1000A800F00079080A128A11EF200A128A117908D9
:1000B8000A128A110F210A128A1183120313880067
:1000C800061D67286828532876088A00750E83005D
:1000D800FE0E7E0E09000A128A11AF200A128A113A
:1000E800831203139F149F187A287B289E280F30A9
:1000F80083120313A100A10B7F2882288312031304
:100108001F0CA100210C0F39003A031D8C288D28E3
:1001180092281F08C33904389F009428C3309F05CC
:100128000F3083120313A100A10B98289B28831278
:1001380003139F140618A128A2287728A52863006E
:100148000B1083120313061CAA28AB28A3287728B0
:100158000A128A110C2803308316031788008901B4
:10016800831603138701FF308600880189018113F4
:100178000F3095007F3096008312031386018701A4
:10018800880189017030831603138F040F149F139D
:100198001F129F12831203131F083F3940389F0014
:1001A8001F08C33904389F001F140F30831203132C
:1001B800A000A00BDD28E028831203138C10033065
:1001C800920412150C13831603130C178B110B14BE
:1001D8000B178B170800F1007108831203178D00A5
:1001E80070088C00831603178C130C150B08F2008B
:1001F8008B0155308D00AA308D008C1472088B004D
:100208000C1107290000831203130D1E0C290D2958
:1002180006290D120800F0007008831203178D00DC
:10022800831603178C130C14831203170C08080089
:08400000FF3FFF3FFF3FFF3FC0
:04400E00D538FF3F63
:00000001FF
