:060000000A128A110C280F
:10000800FE00030EF1000A08F2000A128A111328F2
:100018000A128A110F2883010A128A119028831262
:1000280003130C1F1828192832281F0CF000700C15
:100038000F39013A031D21282228242800002F28DF
:100048001F0CF000700C0F39003A031D2C282D28C6
:100058002F281E088700831203130C130B1C352846
:1000680036284D28061839283A283F28061C3D28E6
:100078003E283A286300831203138618442845282B
:100088004D2849280B1001308802861C4C284D2821
:10009800462872088A00710E8300FE0E7E0E090043
:1000A8000330831603178800890183160313870119
:1000B8000F30860088018113073095000F309600B5
:1000C8008312031386018701880170308316031396
:1000D8008F040F149F131F129F12831203131F08FC
:1000E8003F3940389F001F08C33904389F001F1448
:1000F8001030F300F30B7E280000831203138C10DA
:100108000330920412150C13831603130C178B116A
:100118000B140B178B1708000A128A1154200A12A5
:100128008A11831203139F149F189B289C289828D0
:100138001030F400F40B9E280000831203131F0CE8
:10014800F400740C0F39003A031DAB28AC28B12811
:100158001F08C33904389F00B328C3309F051030E7
:10016800F400F40BB5280000831203139F14982899
:060178000A128A110C2896
:08400000FF3FFF3FFF3FFF3FC0
:04400E00D538FF3F63
:00000001FF
