:060000000A128A110C280F
:10000800FE00030EF5000A08F6000A128A111728E6
:100018000A128A110F28F701F801F901FA01830180
:100028000A128A116E28831203130C1F1C281D281C
:100038003D281F0CF300730C0F39013A031D2528C6
:100048002628282800003A281F0CF300730C0F39C3
:10005800003A031D302831283A281E0887001E0858
:10006800F300F4017308F7007408F800831203130F
:100078000C130B1C4028412867288618442845285B
:100088004D28861C4828492845280130F300730864
:100098008907061950285128672863287708F0002F
:1000A80079080A128A11EA200A128A1179080A12B2
:1000B8008A110A210A128A11831203138800061D65
:1000C80066286728522876088A00750E8300FE0E77
:1000D8007E0E09000A128A11AC200A128A118312B4
:1000E80003139F14831203139F187B287C289F28CF
:1000F8000F3083120313A100A10B802883288312D9
:1001080003131F0CA100210C0F39003A031D8D2881
:100118008E2893281F08C33904389F009528C330B8
:100128009F050F3083120313A100A10B99289C2867
:10013800831203139F140618A228A3287628061CE6
:10014800A628A728A328630076280A128A110C2853
:100158000330831603178800890183160313870168
:10016800FF3086008801890181130F3095008312C2
:1001780003138601870188018901703083160313F0
:100188008F040F149F131F129F12831203131F084B
:100198003F3940389F001F08C33904389F001F1497
:1001A8000F3083120313A000A00BD828DB2883127A
:1001B80003138C100330920412150C1383160313C7
:1001C8000C178B110B140B178B170800F100710813
:1001D800831203178D0070088C00831603178C1385
:1001E8000C150B08F2008B0155308D00AA308D00DC
:1001F8008C1472088B000C1102290000831203135F
:100208000D1E0729082901290D120800F0007008A1
:10021800831203178D00831603178C130C14831293
:0602280003170C0808009A
:08400000FF3FFF3FFF3FFF3FC0
:04400E00D538FF3F63
:00000001FF
