:060000000A128A1100291A
:100200000621031383121F212421032983160317B8
:1002100088018901831603138501061486140615C7
:100220008615061607108710071187110810881009
:1002300008118811831203138501870188010618AC
:10024000292186182E210800061933218619382104
:100250000800432106182A29850A08004321861828
:100260002F2985030800432106193429870A08002D
:1002700043218619392987030800C830A00043218B
:10028000A00B3F290800A530A100A10B45290800BB
:04400E00C430FF3F7C
:00000001FF
