:060000000A128A1100291A
:1002000008212421031383122A212F2134210429B8
:1002100083160317880189018316031385010614C9
:100220008614061586150616071087100711871104
:100230000810881008118811091083120313850112
:100240008701880189010800031383160F128F129A
:100250000F1708000618452186184A2108000619BC
:100260004F21861954210800061A39210800091463
:1002700008005F2106193A29050807078800A2002F
:10028000221E0910221A372108005F21061846296C
:10029000850A08005F2186184B29850308005F2125
:1002A00006195029870A08005F21861955298703F6
:1002B0000800C830A0005F21A00B5B290800A53012
:0802C000A100A10B6129080057
:04400E00C430FF3F7C
:00000001FF
